S00F00006C6963656E63652E7372656342
S11300000C942A000C9448000C9456000C943C0068
S11300100C943C000C943C000C943C000C943C006C
S11300200C943C000C943E000C943C000C94240171
S11300300C943C000C949D010C9474010C943C00B1
S11300400C943C000C943C000C943C000C943C003C
S11300500C943C0011241FBECFE5D4E0DEBFCDBF1D
S113006020E0A0E6B0E001C01D92AD37B207E1F791
S11300700E94FB010C9404020C9400001F920F9246
S11300800FB60F9211240F900FBE0F901F9018956A
S11300901F920F920FB60F9211248F938FEF88BB8C
S11300A08F910F900FBE0F901F9018951F920F9273
S11300B00FB60F92112418BA10927C0010927B0094
S11300C00F900FBE0F901F9018958AE080936900DF
S11300D080E3809367008093680081E380936F00DE
S11300E08093700008951092630010926200109241
S11300F06100109260000895559810927A00089556
S1130100809166008130C1F480917B0090917C00E5
S11301108A30910564F4569AFC01E959FF4F208115
S11301202CB9019690937C0080937B000895569897
S113013010927C0010927B00089580B5806880BD89
S113014081E080937A000E9480000895909161007C
S11301509F5F909361009091740095BB4091630000
S113016041110FC0813309F064C08093650081E0C0
S113017080936300809161008093600088EF88BB66
S1130180089590916200911122C0813309F058C002
S11301902091600030E08091610090E00197281781
S11301A0390709F04DC081E38093640081E08093B6
S11301B062008CEF88BB0895109263001092620075
S11301C010926100109260008AEA88BB0895913011
S11301D081F5413071F59EEF98BBE1E7F0E0908145
S11301E090937200909373009093740090937500B1
S11301F09093760080838033E1F49033D1F480913E
S113020061008730B1F498BB10926100923341F4DD
S11302108FE088BB892F0E949D000E94730008957F
S1130220933389F480EF88BB0E947C000E947300A2
S1130230089580916100873030F00E947300089522
S11302404130B9F7B9CF08951F920F920FB60F92AC
S113025011242F933F934F935F936F937F938F93C7
S11302609F93AF93BF93EF93FF938CB18BBB8CB1F0
S11302700E94A600FF91EF91BF91AF919F918F9142
S11302807F916F915F914F913F912F910F900FBE8E
S11302900F901F9018958FEF84BB80917A00813066
S11302A001F58EEF85BB81E08093660024B1209335
S11302B0780085B1809379003091740030936A009E
S11302C020936B0080936C0010926E0090E0820F7C
S11302D0911D830F911D0A9680936D000E948000EA
S11302E0089581E085BB08951F920F920FB60F9277
S11302F011242F933F934F935F936F937F938F9327
S11303009F93AF93BF93EF93FF9381E080937A0021
S11303100E944B018CEF8CB9FF91EF91BF91AF918B
S11303209F918F917F916F915F914F913F912F9109
S11303300F900FBE0F901F9018951F920F920FB63B
S11303400F9211242F933F934F935F936F937F9357
S11303508F939F93AF93BF93EF93FF930E9480007B
S1130360FF91EF91BF91AF919F918F917F916F9189
S11303705F914F913F912F910F900FBE0F901F905F
S1130380189580B5806880BD8FEF8CB980B58F7764
S113039080BD08951BBA8FEF8ABB9CE392BB81BBDF
S11303A09091630098BB87BB089587B1806C87B92F
S11303B086B18E6D86B980B7806680BF089583B795
S11303C0836083BF89B7816089BF8FEF8CBF089535
S11303D010BC8CE089B98AB18B6D8AB980B5866806
S11303E080BD08950E94CA010E94E8010E94DF01B5
S11303F00E94D50108950E94F20178940E94C101DF
S10F040085E00E946500FFCFF894FFCF58
S9030000FC
